:020000040800F2
:100000001807002065020008B91D0008B11D00088E
:10001000B51D000885060008DD210008000000006D
:10002000000000000000000000000000C11D0008EA
:100030008906000800000000BD1D0008C51D00085D
:100040007F0200087F0200087F0200087F0200088C
:100050007F0200087F0200087F0200087F0200087C
:100060007F0200087F0200087F0200087F0200086C
:100070007F0200087F0200087F0200087F0200085C
:100080007F0200087F0200087F0200087F0200084C
:100090007F0200087F0200087F0200087F0200083C
:1000A0007F0200087F0200087F0200087F0200082C
:1000B000851E00087F0200087F0200087F020008FA
:1000C0007F0200087F0200087F0200087F0200080C
:1000D0007F020008D12100087F0200087F0200088B
:1000E0007F0200087F0200087F0200087F020008EC
:1000F0007F0200087F0200087F0200087F020008DC
:100100007F0200087F0200087F0200087F020008CB
:100110007F0200087F0200087F0200087F020008BB
:100120007F0200087F0200087F0200087F020008AB
:100130007F0200087F0200087F0200087F0200089B
:100140007F0200087F0200087F0200087F0200088B
:100150007F0200087F0200087F0200087F0200087B
:100160007F0200087F0200087F0200087F0200086B
:100170007F0200087F0200087F02000800000000E4
:100180007F0200087F02000800F002F800F05BF830
:1001900014A696E8000CB244B344DA4501D100F04D
:1001A00052F8BAE80F000FA696E83000A5EB040558
:1001B00004EB0607AAEB0704A7F101074FEA1515A0
:1001C0004FEA3414A4F10104AC4201D300F03BF82F
:1001D00013F0010F18BFFB1A43F0010300F001F800
:1001E000DBE7184798220000B8220000103A24BF2D
:1001F00078C878C1FAD8520724BF30C830C144BF8C
:1002000004680C6070470000704700000023002461
:1002100000250026103A28BF78C1FBD8520728BF16
:1002200030C148BF0B6070471FB502F00DF900F0F8
:10023000C5F904000020002102F0F0F8401C6060C5
:100240001FBD10B510BD00F094F91146FFF7ECFF8B
:1002500002F01AF800F0C4F903B4FFF7F2FF03BC90
:1002600000F008FA0948804709480047FEE7FEE722
:10027000FEE7FEE7FEE7FEE7FEE7FEE7FEE7FEE756
:1002800004480549054A064B70470000711E0008E6
:100290008901000818010020180700201803002019
:1002A0001803002053EA020C00F069802DE9F04B9E
:1002B0004FF00006002B1FBFB3FA83F503FA05F4D5
:1002C00024FA05F65E4012BF1643B2FA82F502FA2E
:1002D00005F4C5F120051EBF22FA05FC44EA0C0412
:1002E000203556EA044C4FEA144418BF641C4FF002
:1002F00000084FF00009904271EB030C39D300293C
:1003000019BFB1FA81F701FA07F6B0FA80F700FADF
:1003100007F6C7F120071EBF20FA07FC46EA0C06C5
:100320002037B6FBF4FCA7EB0507103F07F01F0BC7
:10033000CBF120062CFA06F60CFA0BFB44BFB346B1
:100340000026202FA4BF5E464FF0000B5BEA060C90
:1003500008BF4FF0010B19EB0B0948EB0608ABFB8C
:10036000027C06FB02CC0BFB03CCC01B71EB0C0127
:10037000C1E70B46024641464846BDE8F08B13B53F
:10038000084318BF4FF0FF300146AFF30080BDE8CF
:100390001C40704770B5064600F014F80468054626
:1003A00030460A22002100F011F82C6070BD0000D8
:1003B000014A00F043B80000000000207047704779
:1003C0007047000000487047100000202DE9F047FA
:1003D00091460F4680460446002614F8015B2DB175
:1003E00000F052F80068405DC007F6D12B2D02D016
:1003F0002D2D18D0641E4A463946204600F04CF890
:1004000027B13968A14201D1C7F800804FF002043A
:1004100071050BD54042002803DDFFF7D3FF0460D0
:10042000A007BDE8F08746F48066E4E70028F8DA24
:10043000FFF7C8FF04606FF00040F2E72DE9F041DC
:1004400015460E46040002D12C6804B90BA42046C0
:1004500000F081F80444207870B1274631463846D0
:1004600000F069F80444207810B1002004F8010B72
:1004700038462C60BDE8F0810027F9E70000000055
:10048000004870471000002010B500F097F8001DDC
:1004900010BD00BF891F00002DE9F05F82461546A0
:1004A0008B4600270AF10104B9460078302801D0B4
:1004B0009DB113E014F8010B0127782803D05828C8
:1004C00001D045B10AE00DB1102D07D1002714F875
:1004D000010B102502E0082500E00A250026B046A1
:1004E0000EE005FB080005FB06F101271FFA80F866
:1004F00001EB1046B6F5803F00D3B94614F8010B66
:10050000294600F05FF80028EBDABBF1000F05D0B8
:100510000FB1641E00E05446CBF80040B9F1000F63
:1005200006D0FFF74FFF02210160C81EBDE8F09F13
:1005300048EA0640FAE730B503461D781DB10A4681
:1005400003E0AC4201D1181A30BD12F8014B002C67
:10055000F7D15B1CF1E730B503461D783DB10A4683
:1005600012F8014B1CB1AC42FAD15B1CF5E7181A2A
:1005700030BD7546FFF784FFAE4605006946534619
:1005800020F00700854618B020B5FFF779FEBDE8DA
:1005900020404FF000064FF000074FF000084FF0EA
:1005A000000BAC46ACE8C009ACE8C009ACE8C00937
:1005B000ACE8C00921F007018D467047004870473C
:1005C000300000203A2800D2303820F02002412AA2
:1005D00001D3A2F13700884201D34FF0FF307047BA
:1005E00010B50446AFF300802046BDE81040FFF789
:1005F00033BE00000000000030B44FF0013C50F862
:10060000042B51F8043BCCFA52F4D51A20D1FCB992
:1006100050F8042B51F8043BCCFA52F4D51A17D1F8
:10062000B4B950F8042B51F8043BCCFA52F4D51A63
:100630000ED16CB950F8042B51F8043BCCFA52F4AB
:10064000D51A05D1002CDAD030BC4FF0000070472D
:1006500029BAB1FA81F111F01801D1F120008440DA
:10066000F2D1CA40CB4012F0FF0213F0FF0330BCBE
:10067000D01A704701491820ABBEFEE726000200E1
:1006800070470000FEE700007047000070B5866DFF
:10069000044600F02BF994F83510022928D10546BC
:1006A0002068216C026822F016020260426922F082
:1006B0008002426109B9A16C19B1016821F00801F9
:1006C0000160016821F00101016000BF206800683D
:1006D000C00715D000F00AF9401B0628F6D32020E9
:1006E0006065032084F83500002184F8341070BD63
:1006F000802060650120002184F8341070BD00BFA7
:10070000E06D3F2101FA00F0B060012084F835006F
:100710000020002184F8341070BD000090F83510DE
:10072000022909D1052180F835100068016821F0FF
:100730000101016000207047802141650120704760
:100740002DE9F04F82B000F13E4707F1FF778605B3
:1007500046EA972741F60046C4F20206082243F60D
:10076000004EB04208BF0722C4F2010E072F38BF67
:100770003A46002600274FF00008009209E000BF2B
:1007800008F101080237B8F1100F06F1040600F075
:10079000A3800D68012202FA08F415EA0409EFD0DB
:1007A000D1F804B003220BF0030CACF10105BA4000
:1007B000012D6FEA020A0FD88268CD6802EA0A02A8
:1007C000BD402A4382604268A243CBF3001404FA7E
:1007D00008F42243426005E0BCF1030F02D14FF060
:1007E000030C1EE0C2688C6802EA0A02BC40224385
:1007F000BCF1020FC26014D16FF0030202EA58028A
:100800000244D2F820C006F01C040F230D69A34057
:100810002CEA0303A5402B431362D1F804B00BF07C
:10082000030C02680CFA07F302EA0A021A431BF4EB
:10083000403F0260A4D0002243F644030192C4F278
:1008400002031A684FF6084C42F480421A601A6894
:10085000CFF6FF7C02F480420192019A28F0030255
:10086000724452F80C3006F00C050F24AC40A34340
:10087000009C04FA05F52B4342F80C30DEF8082002
:100880004B6842EA090543F60C4CDC0258BF22EAE9
:100890000905CEF80850C4F2010CDCF800209C02D7
:1008A00042EA090558BF22EA0905CCF80050DEF8F3
:1008B00004209C0342EA090558BF22EA0905CEF844
:1008C0000450DEF80020DB0342EA090558BF22EAA3
:1008D0000905CEF8005053E702B0BDE8F08F0000E4
:1008E000002A08BF090481617047000040F214101B
:1008F000C2F200000068704740F2040040F2141198
:10090000C2F20000C2F2000100780A6810440860D8
:100910007047000080B543F60040C4F20200016851
:1009200041F400710160016841F480610160016877
:1009300041F480710160032000F086F80F2000F080
:1009400005F800F027F8002080BD000070B540F2E7
:100950000406C2F2000640F20C013278C2F2000135
:100960004FF47A730968B3FBF2F20446B1FBF2F17B
:10097000084600F061FB0F2C4FF0010508D838B98C
:100980004FF0FF3021460022002500F031F874605E
:10099000284670BD82B0002043F640010190C4F2A9
:1009A00002014A6842F480424A604A6802F4804286
:1009B0000192019A0090086840F080500860086831
:1009C00000F080500090009802B07047002848BFA7
:1009D000704700F01F01012202FA01F11C2202EA15
:1009E000D0004EF20012CEF200028150704700009B
:1009F00010B54EF60C5CCEF2000CDCF80030C3F300
:100A0000022E8EF00704042C28BF0424BEF1030339
:100A10004FF0FF3E0EFA04F438BF0023A143994083
:100A20000EFA03F39A43114300F00F0200F1604302
:100A30000901043A03F564436244002848BF02F107
:100A40000C03197010BD00004EF60C51CEF20001DF
:100A50000A684FF6FF031A4060F30A2242F08060F2
:100A600040F0FD7008607047002804BF0120704707
:100A70002DE9F04143F60808C4F202080446D8F80C
:100A8000F8030D4600F00700884207D288F8F853B3
:100A9000D8F8F80300F00700A84277D12068810752
:100AA00017D5410705D5D8F8001041F4E051C8F832
:100AB0000010010705D5D8F8001041F46041C8F8CE
:100AC0000010D8F80010A26821F0F0011143C8F816
:100AD0000010C00740D1D8F8F80300F00700A84282
:100AE00007D988F8F853D8F8F80300F00700A842AF
:100AF0004CD12068410707D5D8F80010E26821F4EE
:100B0000E0511143C8F80010000708D5D8F80000DC
:100B1000216920F4604040EAC100C8F8000000F0FC
:100B20007DF8D8F8001042F26242C1F30311C0F61A
:100B30000002515C40F20C0220FA01F140F2080080
:100B4000C2F200000068C2F200021160FFF7FEFE70
:100B50000020BDE8F08100BF6068811E022907D235
:100B600058F8081C89015CBF0120BDE8F08111E044
:100B7000012807D158F8081C89035CBF0120BDE893
:100B8000F08107E058F8081C890703D40120BDE86C
:100B9000F08100BFD8F8001021F003010843C8F825
:100BA0000000FFF7A3FE064641F28837D8F80000A0
:100BB000616800F00C00B0EB810F8CD0FFF796FE5F
:100BC000801BB842F2D90320BDE8F08140F20C004E
:100BD00043F60801C2F20000C4F20201006809688D
:100BE00042F27242C1F38221C0F60002515CC84059
:100BF0007047000040F20C0043F60801C2F200000A
:100C0000C4F202010068096842F27242C1F3423143
:100C1000C0F60002515CC8407047000010B543F6B2
:100C20000404C4F20204606800F00C0008280BD031
:100C3000042819BF42F20040C0F2F40047F6400019
:100C4000C0F27D1010BD00BF2068216823684902F2
:100C500047F64001C0F27D1100F03F02C3F3881057
:100C60005CBF42F20041C0F2F401A1FB000100238D
:100C7000FFF718FB21680222C1F3014102EB410199
:100C8000B0FBF1F010BD0000002804BF0120704748
:100C90002DE9F04182B00446007843F60006C00713
:100CA000C4F202060CD0B06800F00C00042840F03A
:100CB00081803068800303D56068002800F06A8175
:100CC000207880071BD5B06810F00C0F09D0B068F1
:100CD00000F00C00082840F087807068400200F1A6
:100CE00083803068800703D5E068012840F0528196
:100CF0003068216920F0F80040EAC10030602078B7
:100D0000000713D4207840072AD4A569002D00F0ED
:100D10003C81B06800F00C00082840F0A180012D53
:100D200040F01081012002B0BDE8F0816069002828
:100D300040F20000C4F2472000F07E800121C0F89C
:100D4000801EFFF7D3FD0546706F8007DAD4FFF7EA
:100D5000CDFD401B0228F7D9032002B0BDE8F08189
:100D6000306C5FEAC0080AD400200190306C40F07B
:100D700080503064306C00F080500190019847F250
:100D80000007C4F200073868C00547D4386840F44B
:100D900080703860FFF7AAFD054600BF3868C005BF
:100DA0003CD4FFF7A3FD401B0228F7D9032002B073
:100DB000BDE8F081B06800F00C00082803D170682D
:100DC00040023FF576AF6068B0F5803F07D0B0F5E0
:100DD000A02F40F09B80306840F480203060306865
:100DE00040F4803030609BE0E06800285CD0002058
:100DF000C4F2472001210160FFF778FD054600BFDE
:100E0000306880073FF574AFFFF770FD401B022884
:100E1000F6D9032002B0BDE8F08100BFA068012828
:100E200005D0052854D1306F40F004003067306F92
:100E300040F00100306755E00021C0F8801EFFF748
:100E400055FD0546706F80077FF55CAFFFF74EFDDF
:100E5000401B0228F6D9032002B0BDE8F08100BF94
:100E60000027C4F2472700203866FFF73FFD022D18
:100E700005460DD13068800140F19080FFF736FDC6
:100E8000401B02284FF00300F4D902B0BDE8F08106
:100E90003068800179D5FFF729FD401B02284FF00B
:100EA0000300F5D9F1E700BF0020C4F2472000217C
:100EB0000160FFF71BFD0546306880077FF51FAF17
:100EC000FFF714FD401B02284FF00300F4D9DCE7C4
:100ED000316F002821F001013167316F21F00401E9
:100EE00031677DD0FFF702FD054641F2883700BF2C
:100EF000306F800700F18680FFF7F8FC401BB84296
:100F0000F6D9032002B0BDE8F08100BF31680028A7
:100F100021F480313160316821F4802131607BD04F
:100F2000FFF7E4FC054600BF306880033FF5C8AE1C
:100F3000FFF7DCFC401B6428F6D9032002B0BDE8B3
:100F4000F08100BF7068E16900F480028A4221D11B
:100F5000216A00F03F028A421CD147F6C071626AE2
:100F60000140B1EB821F15D1A16A4FF6FF73C9038F
:100F7000994300F44032A1F580318A420AD1E16AF6
:100F800000F07060B0EB016F04D1002002B0BDE84A
:100F9000F08100BF012002B0BDE8F08104F11C0522
:100FA0002FCD084340EA8210D9034FF6FF729143D8
:100FB000A1F5803140EA0560084370600120386681
:100FC000FFF794FC044600BF30688001DDD4FFF7D2
:100FD0008DFC001B02284FF00300F5D955E700BF38
:100FE000FFF784FC054641F2883700BF306F800769
:100FF00008D5FFF77BFC401BB8424FF00300F5D942
:1010000043E700BFB8F1000F3FF57FAE306C20F032
:101010008050306479E600BFFFF768FC054600BFEA
:10102000306880037FF54CAEFFF760FC401B6428FE
:101030004FF00300F4D928E7411E0020B0EB116FF8
:101040001CBF012070474EF21002CEF20002516028
:101050004EF62351CEF20001F0230B700721906071
:1010600011607047704700007047000090F83C2006
:10107000012A4FF0020254D010B580F83D200268DA
:10108000D2F804E0D2F808C00C682EF070032343B5
:1010900041F2FF74C4F20004A24253600EDC40F23D
:1010A000FF73C4F200039A4216DCB2F1804F2BD0DA
:1010B00040F20043C4F2000324E000BF40F2FF33DB
:1010C000C4F201039A4213DC41F60003C4F20003A8
:1010D0009A4219D0002313E040F60003C4F2000343
:1010E0009A4211D040F60043C4F200030AE000BF68
:1010F00044F20003C4F201039A4205D040F20043D7
:10110000C4F201039A4204D149682CF080031943C8
:1011100091600121002280F83D1080F83C20BDE85C
:1011200010401046704700007047000070B504463C
:101130000068C5680669B10716D515F0020113D01D
:101140006FF002010161012121778069800703D0DE
:101150002046FFF7E9FF05E0204600F0B7F82046FB
:1011600000F018FA00202077700719D515F0040058
:1011700016D020686FF00401016102212177806997
:1011800010F4407F04D02046FFF7CEFF06E000BFFA
:10119000204600F09BF8204600F0FCF90020207764
:1011A000300717D515F0080014D020686FF008013B
:1011B000016104212177C069800703D02046FFF731
:1011C000B3FF05E0204600F081F8204600F0E2F988
:1011D00000202077F00619D515F0100016D02068F1
:1011E0006FF01001016108212177C06910F4407F80
:1011F00004D02046FFF798FF06E000BF204600F02D
:1012000065F8204600F0C6F900202077F00718BFE7
:1012100015F0010002D1300609D412E020686FF009
:1012200001010161204600F047FA300609D515F0AA
:10123000800006D020686FF0800101612046FFF732
:1012400011FF700609D515F0400006D020686FF038
:1012500040010161204600F031FAB00658BF70BD70
:1012600015F0200008D021686FF0200220460A61A6
:10127000BDE87040FFF7F8BE70BD00000068B0F137
:10128000804F18BF704780B586B0002043F630010C
:101290000190C4F202010A6842F001020A60096882
:1012A00001F0010101910199032101910221CDE990
:1012B00002100490012005900020C4F2020001A950
:1012C000FFF73EFA06B0BDE8804070477047000067
:1012D00090F83C30012B04BF022070474FEAB20265
:1012E000032A00F201812DE9F043DFE802F0033F19
:1012F0007FBF00BF036840F200461C6A1A6A24F0F0
:10130000020422F001021A621A46D3F804C052F80D
:1013100018EF8F6843F48065C4F20106B54244EAD1
:10132000070405D1CF6824F00C0427F004073C43E0
:101330000F68B54206D1D1E905582CF440762E430A
:1013400046EA080C2EF073063743C3F804C09F61C9
:101350004F6809695F631C629F6947F008079F61D6
:101360009F6927F004079F61B2E000BF036840F265
:1013700000481C6A1A6A24F0200422F010021A6243
:101380001A46D3F804C052F818EF8F6843F480650A
:10139000C4F20108454544EA071407D1CF686FF04D
:1013A000400624F0C00406EA07163443D1F8009042
:1013B000454506D1D1E905562CF440672E4347EA4E
:1013C000860C2EF4E64747EA0927C3F804C09F615C
:1013D0004F6809699F631C629F6947F400679F61BA
:1013E0009F6927F480679F6171E000BF036840F246
:1013F00000481C6A1A6A24F4007422F480721A628B
:101400001A46D3F804C052F81CEF8F6843F4806585
:10141000C4F20108454544EA072408D1CF6840F2E8
:10142000FF463F0224F4406427EA06063443D1F81D
:101430000090454506D1D1E905562CF440572E437E
:1014400047EA061C2EF0730747EA0907C3F804C0F1
:10145000DF614F680969DF631C62DF6947F00807D5
:10146000DF61DF6927F00407DF6131E0036840F2E4
:101470000045D3F820C01A6A43F4806722F48052F2
:101480001A621A465C6852F81CEFD1F800808E6828
:10149000C4F20105AF4204D14D6924F4804444EA0A
:1014A00085142CF4005747EA06372EF4E64646EA40
:1014B00008265C60DE614E6809691E641F62DF6990
:1014C00047F40067DF61DF6927F48067DF610902A5
:1014D0001368194311600021BDE8F043002280F831
:1014E0003C200846704700BF0121002280F83C20C4
:1014F00008467047002804BF0120704710B5044615
:1015000090F83D0028B9002084F83C00204600F007
:101510001FF8022084F83D002068211D00F0B8FC6F
:10152000012084F8460084F83E0084F83F0084F8E7
:10153000400084F8410084F8420084F8430084F8B5
:10154000440084F8450084F83D00002010BD0000F0
:101550000068B0F1804F18BF704780B582B000209E
:10156000019043F64000C4F202000168002241F0FD
:10157000010101600068002100F001000190019864
:101580001C20FFF735FA1C2002B0BDE88040FFF7B1
:101590001DBA00007047000041B1082910D004298D
:1015A00014BF00F1410200F13F020BE090F83E2031
:1015B000012A1CBF01207047022280F83E2013E060
:1015C00000F140021278012A1CBF0120704702225C
:1015D000082907D0042914BF80F8412080F83F2053
:1015E00002E000BF80F84020006801F01F010122E6
:1015F000036A02FA01F123EA01020262026A11435C
:1016000041F2FF72C4F200029042016210DC40F22B
:10161000FF71C4F2000188421CDCB0F1804F3FD062
:1016200040F20041C4F20001884239D03DE000BFE1
:1016300040F2FF31C4F20101884219DC41F6000199
:10164000C4F2000188422BD00021C4F2010188427B
:101650001AD02AE040F60001C4F2000188421FD0EF
:1016600040F60041C4F20001884219D01DE000BFDD
:1016700044F20001C4F20101884211D040F200415D
:10168000C4F20101884210D1416C40F2004340F4A1
:101690008062C4F2010341F400419A42416404D1E2
:1016A000816801F00701062903D0016841F00101BA
:1016B0000160002070470000704700007047000084
:1016C0007047000070470000B0B582B00446006863
:1016D0000168C368426901F02F05202D03F0200541
:1016E00006D12DB1204602B0BDE8B04000F078BC74
:1016F0005FEA017C1EBF02F0010E03F4907212EB50
:101700000E0243D1226BCD0618D5012A16D113F053
:10171000100213D0002101910168019141680191EB
:101720000199406940063BD4A08DE18DE28D002AED
:1017300018BF884240F0FE8102B0B0BD0A0640F1F9
:10174000E98013F0800200F0E58094F8411021292F
:10175000F2D1A168B1F5805F03D12169002900F0C1
:101760006F82216A4A1C226209784160E18C01394A
:101770000A04E184E0D1C16821F08001C160C16840
:1017800041F04001C16002B0B0BD00BFCA0718BF40
:1017900013F4807240F0DC804A0700F1DF80E4E05F
:1017A000E06B01684A68A38D91B2002900F0C68001
:1017B000994280F0C380E285C069B0F5807F00F077
:1017C0009C80206850E8030F216820F4807041E875
:1017D0000302DAB1206850E8030F216820F480701A
:1017E00041E8030292B1206850E8030F216820F419
:1017F000807041E803024AB1206850E8030F216875
:1018000020F4807041E80302002ADAD1206850E811
:10181000050F216820F0010041E80502DAB12068D7
:1018200050E8050F216820F0010041E8050292B15F
:10183000206850E8050F216820F0010041E805020A
:101840004AB1206850E8050F216820F0010041E806
:101850000502002ADAD1206850E8050F216820F03F
:10186000400041E80502DAB1206850E8050F216820
:1018700020F0400041E8050292B1206850E8050FD1
:10188000216820F0400041E805024AB1206850E894
:10189000050F216820F0400041E80502002ADAD156
:1018A000202084F8420000202063206850E8030FC5
:1018B000216820F0100041E80302DAB1206850E806
:1018C000030F216820F0100041E8030292B1206864
:1018D00050E8030F216820F0100041E803024AB1EC
:1018E000206850E8030F216820F0100041E803024F
:1018F000002ADAD1E06BFEF7C9FE02206063A08DFA
:10190000E18D401A81B2204602B0BDE8B040FFF739
:10191000D7BE00BF49067FF50FAF13F040013FF47B
:101920000BAFC16821F04001C1602021204684F83E
:10193000411002B0BDE8B04000F038BA8B427FF4ED
:10194000FBAEC069B0F5807F7FF4F6AE02226AE19B
:10195000626C42F0010262644A0706D5BEF1000FD4
:1019600003D0626C42F0020262648A0706D5BEF1BF
:10197000000F03D0626C42F004026264BCF1000FFD
:1019800006D55EEA050203D0626C42F0080262648A
:10199000626C002A3FF4D0AE890604D51DB1204602
:1019A00000F01EFB20684069616C00F0400001F00F
:1019B0000801401800F0B680206850E8030F216845
:1019C00020F4907041E80302BAB3206850E8030F96
:1019D000216820F4907041E8030272B3206850E857
:1019E000030F216820F4907041E803022AB32068B5
:1019F00050E8030F216820F4907041E80302002AA8
:101A0000DAD11AE0206850E8050F216820F00100C3
:101A100041E80502DAB1206850E8050F216820F09E
:101A2000010041E8050292B1206850E8050F2168E5
:101A300020F0010041E805024AB1206850E8050F96
:101A4000216820F0010041E80502002ADAD1206B6C
:101A5000012824D1206850E8030F216820F01000ED
:101A600041E80302DAB1206850E8030F216820F052
:101A7000100041E8030292B1206850E8030F21688A
:101A800020F0100041E803024AB1206850E8030F3B
:101A9000216820F0100041E80302002ADAD120205A
:101AA00084F842000020206320684069400640F12D
:101AB000C180206850E8050F216820F0400041E80F
:101AC0000502DAB1206850E8050F216820F04000D7
:101AD00041E8050292B1206850E8050F216820F026
:101AE000400041E805024AB1206850E8050F21682E
:101AF00020F0400041E80502002ADAD1E06B00281E
:101B000000F0988041F6D571C0F600010165FEF73E
:101B100005FE00283FF410AEE06B016D02B0BDE899
:101B2000B04008472046FFF7CDFD0020606402B0BA
:101B3000B0BD00BF401A00BF216851E8031F2268F2
:101B400021F4907142E80313BBB3216851E8031FED
:101B5000226821F4907142E8031373B3216851E8BD
:101B6000031F226821F4907142E803132BB321680C
:101B700051E8031F226821F4907142E80313002BFF
:101B8000DAD11AE0216851E8051F226821F001012D
:101B900042E80513DBB1216851E8051F226821F0F6
:101BA000010142E8051393B1216851E8051F22683D
:101BB00021F0010142E805134BB1216851E8051FEE
:101BC000226821F0010142E80513002BDAD120211F
:101BD00084F8421000212163216851E8031F226824
:101BE00021F0100142E80313DBB1216851E8031F23
:101BF000226821F0100142E8031393B1216851E8F3
:101C0000031F226821F0100142E803134BB1216841
:101C100051E8031F226821F0100142E80313002B52
:101C2000DAD1022281B22046626302B0BDE8B04040
:101C3000FFF746BD204602B0BDE8B040FFF742BD09
:101C4000216A31F8022B6FF35F22426021628DE539
:101C5000002804BF0120704710B5044690F84100E9
:101C600028B9002084F84000204600F021F8242004
:101C700084F841002068C16821F40051C160204609
:101C800000F02EFA2068016921F490410161416958
:101C900021F02A014161C16841F40051C160002076
:101CA0002021606484F8411084F84210606310BD04
:101CB000016841F20000C4F20100814218BF704780
:101CC00080B586B0002143F630020191C4F20202D1
:101CD000536900F5704043F010035361536903F0FA
:101CE00010030193019B0191136843F001031360FA
:101CF000126802F001020192019A4FF4C06201924F
:101D00000222CDE90221032104910721059101A9B5
:101D1000FEF716FD252000210022FEF769FE252092
:101D2000FEF754FE06B0BDE88040704790F84230A0
:101D3000202B07D100294FF0010318BF002A05D13D
:101D40001846704702231846704700BF00230363FC
:101D5000816222218285C285436480F84210016934
:101D6000006819B1C16841F48071C160416941F0F6
:101D700001014161C16841F02001C160184670470E
:101D800040F2CC01C2F20001884218BF704740F215
:101D90007001C2F20001012041F80C0B40F2CC00AE
:101DA000C2F200000722FFF7C1BF00007047000029
:101DB000FEE70000FEE70000FEE7000070470000BD
:101DC00070470000FEF798BDB0B592B0002443F60E
:101DD00040000B94CDE90944CDE907440594CDE9D1
:101DE0000344CDE901440094C4F2020001680225D5
:101DF00041F080510160006800F080500090009830
:101E000047F200000094C4F20000016841F48041F0
:101E10000160006800F48040009000980120099063
:101E200010200A9008200E90A820CDE90F0504206C
:101E3000119006A80695CDE90C54FEF725FF18B1C0
:101E400072B600BFFEE700BF0F20CDE901054FF4D9
:101E5000A05004904FF48050059001A805210394F0
:101E6000FEF702FE10B172B6FEE700BF12B0B0BDC1
:101E70004EF68850CEF20000016841F47001016016
:101E80007047000040F28400C2F20000FFF74EB934
:101E9000B0B540F6FF3E0568C4F2000E40F2004CBB
:101EA0007045C4F2010C27DCB0F1804F31D040F214
:101EB0000043C4F2000398422BD040F60003C4F262
:101EC0000003984225D041F6FF73C4F20003984204
:101ED0002ADC70453CDCB0F1804F5FD040F200431B
:101EE000C4F20003984259D040F60003C4F2000344
:101EF000984253D057E000BF40F60043C4F20003BD
:101F0000984206D0604504D00023C4F201039842F1
:101F1000D9D14B6825F0700243EA020541F6FF7300
:101F2000C4F200039842D4DD43F6FF73C4F2010308
:101F3000984221DC42F20003C4F2000398422DD003
:101F40000023C4F20103984228D0604526D02AE03D
:101F500040F60043C4F2000398421FD041F600034C
:101F6000C4F20003984219D041F60043C4F20003C2
:101F7000984213D017E000BF44F20003C4F20103FB
:101F800098420BD044F60003C4F20103984205D0F6
:101F900044F20043C4F20103984204D1CB6825F413
:101FA000407243EA02050A688C684B69C46240F4D7
:101FB00080648262644504BF09690163026825F098
:101FC000800142F004021943026001224261016073
:101FD000B0BD0000806B0021C185FFF773BB00001E
:101FE00081B090F84210222921D183680246B3F5CE
:101FF000805F09D152F8281F52F8183C002B63D09B
:1020000003685B680AE000BF52F8281F13B9036930
:10201000002BF5D003685B6803F07F030B70116839
:1020200001311160C18D01390A04C18502D001B0AE
:10203000704700BF0168CA6822F02002CA60CA68FF
:1020400022F48072CA604A6922F001024A612021AA
:1020500080F8421000214163026B012A3CD10163E8
:10206000016851E8031F026821F0100142E80313E0
:10207000DBB1016851E8031F026821F0100142E85A
:10208000031393B1016851E8031F026821F01001A6
:1020900042E803134BB1016851E8031F026821F0C5
:1020A000100142E80313002BDAD101680A68D20656
:1020B00006D5002200920A680092496800910099B2
:1020C000818D01B0FFF7FCBA026852686FF35F229E
:1020D00021F8022B8162A5E701B0FFF751BE000095
:1020E00010B504460068D4E902C22369016921F4ED
:1020F000405111430161626943EA0C01E3691143F4
:10210000C268194349F20C639A431143C1604169A3
:10211000A26921F4407141F20043114340F480620E
:10212000C4F201039A42416102D1FEF763FD01E06E
:10213000FEF74CFDE16963681922B1F5004FA0FB81
:10214000020123D15A00DB0FFEF7ACF848F21F5111
:10215000C5F2EB11A0FB01235A094FF69C73C0F6A0
:10216000FF7303F1805302FB0300322303EBC00033
:10217000A0FB01014FF4F87000EA111000EB02100F
:10218000C1F3421108442168886010BD9A009B0F7A
:10219000FEF788F848F21F51C5F2EB11A0FB0123AE
:1021A0005A094FF69C73C0F6FF7302FB03003223FB
:1021B00003EB0010A0FB0101F02000EA511000EB3E
:1021C0000210C1F3431108442168886010BD00006B
:1021D00040F2CC00C2F20000FFF776BAFEE7000042
:1021E000B0B502280C461FD0012835D0002818BFF2
:1021F000B0BD40F28400C2F20000006840F200442A
:102200000021C4F20204416381634163816320467B
:1022100001210022FEF764FB204602210022BDE8D6
:10222000B040FEF75DBB00BF40F20045C4F20205BE
:10223000284601210122FEF753FB284602210122F4
:10224000FEF74EFB40F28400C2F20000006800215D
:1022500041638463B0BD00BF40F20045C4F2020593
:10226000284601210122FEF73BFB284602210122DC
:10227000FEF736FB40F28400C2F200000068002145
:1022800044638163B0BD00008AB040F20044C4F2F0
:102290000204FEF73FFBFFF797FD002543F63000F1
:1022A00005950895C4F202000168012241F0800101
:1022B00001600168032601F08001089108990895E2
:1022C0000168012741F001010160016801F001018D
:1022D000089108990895016841F0020101600068C1
:1022E000032100F00200089008982046FEF7F8FA53
:1022F00001A92046CDE90167CDE90355FEF720FA93
:1023000040F27006C2F200064FF08041304640F8BD
:10231000141FA72140F2E732CDE90855CDE9065553
:10232000CDE90455C0E90115C0E903258561FFF732
:10233000E1F818B172B600BFFEE700BF06F1140560
:1023400008A92846FEF792FE10B172B6FEE700BF5C
:10235000602001900020CDE90200059001A92846E7
:102360000022FEF7B5FF18B172B600BFFEE700BF4E
:1023700001A928460422FEF7ABFF18B172B600BFD0
:10238000FEE700BF2846FEF779FF40F2CC00A4F537
:102390007441C2F2000000270C234FF4165280E86B
:1023A0008600C0E90377C0E90537C761FFF750FC35
:1023B00010B172B6FEE700BF28460021FFF7ECF827
:1023C00028460421FFF7E8F840F2CC0006F10C01A2
:1023D000C2F200000722FFF7A9FC42F27A44C0F6DD
:1023E000000401AD30680128FCD1307CF1688DF823
:1023F0000800019128462146FDF7DAFFFDF7CAFFE4
:10240000706000202146FDF7D3FFFDF7C3FF0146B2
:102410007068B160FFF7E4FE3760E3E710B50029AC
:102420000AD00878002807D005487844FEF7E4F879
:10243000002801D0002010BD0248784410BD0000E3
:10244000720000006A000000F1EE100A4FF6FF7102
:10245000C0F2C03120EA010040F04070E1EE100A05
:10246000704700000000000000000102030406079E
:10247000080900000000010203042C00B025000838
:102480000000002010000000EC010008C02500083A
:1024900010000020080700000C02000810010000D6
:1024A00043000000F8FFFFFF004040404040404034
:1024B0004040414141414140404040404040404017
:1024C00040404040404040404005020202020202BB
:1024D000020202020202020202202020202020200A
:1024E000202020020202020202029090909090901E
:1024F00010101010101010101010101010101010DC
:10250000101010100202020202028888888888884F
:10251000080808080808080808080808080808083B
:102520000808080802020202400000000000000043
:10253000000000000000000000000000000000009B
:10254000000000000000000000000000000000008B
:10255000000000000000000000000000000000007B
:10256000000000000000000000000000000000006B
:10257000000000000000000000000000000000005B
:10258000000000000000000000000000000000004B
:10259000000000000000000000000000000000003B
:1025A000000000000000000000000000000000002B
:1025B0000000000001000000100000000024F400F2
:040000050800018965
:00000001FF
